{
  "_format": "hh-sol-artifact-1",
  "contractName": "TokenizedBallot",
  "sourceName": "contracts/TokenizedBallot.sol",
  "abi": [
    {
      "inputs": [
        {
          "internalType": "bytes32[]",
          "name": "proposalNames",
          "type": "bytes32[]"
        },
        {
          "internalType": "address",
          "name": "_tokenContract",
          "type": "address"
        },
        {
          "internalType": "uint256",
          "name": "_targetBlockNumber",
          "type": "uint256"
        }
      ],
      "stateMutability": "nonpayable",
      "type": "constructor"
    },
    {
      "inputs": [
        {
          "internalType": "uint256",
          "name": "",
          "type": "uint256"
        }
      ],
      "name": "proposals",
      "outputs": [
        {
          "internalType": "bytes32",
          "name": "name",
          "type": "bytes32"
        },
        {
          "internalType": "uint256",
          "name": "voteCount",
          "type": "uint256"
        }
      ],
      "stateMutability": "view",
      "type": "function"
    },
    {
      "inputs": [],
      "name": "tokenContract",
      "outputs": [
        {
          "internalType": "contract IMyVoteToken",
          "name": "",
          "type": "address"
        }
      ],
      "stateMutability": "view",
      "type": "function"
    },
    {
      "inputs": [
        {
          "internalType": "uint256",
          "name": "proposal",
          "type": "uint256"
        },
        {
          "internalType": "uint256",
          "name": "amount",
          "type": "uint256"
        }
      ],
      "name": "vote",
      "outputs": [],
      "stateMutability": "nonpayable",
      "type": "function"
    },
    {
      "inputs": [
        {
          "internalType": "address",
          "name": "account",
          "type": "address"
        }
      ],
      "name": "votingPower",
      "outputs": [
        {
          "internalType": "uint256",
          "name": "",
          "type": "uint256"
        }
      ],
      "stateMutability": "view",
      "type": "function"
    },
    {
      "inputs": [
        {
          "internalType": "address",
          "name": "",
          "type": "address"
        }
      ],
      "name": "votingPowerSpent",
      "outputs": [
        {
          "internalType": "uint256",
          "name": "",
          "type": "uint256"
        }
      ],
      "stateMutability": "view",
      "type": "function"
    },
    {
      "inputs": [],
      "name": "winnerName",
      "outputs": [
        {
          "internalType": "bytes32",
          "name": "winnerName_",
          "type": "bytes32"
        }
      ],
      "stateMutability": "view",
      "type": "function"
    },
    {
      "inputs": [],
      "name": "winningProposal",
      "outputs": [
        {
          "internalType": "uint256",
          "name": "winningProposal_",
          "type": "uint256"
        }
      ],
      "stateMutability": "view",
      "type": "function"
    }
  ],
  "bytecode": "0x60806040523480156200001157600080fd5b5060405162000dd538038062000dd5833981810160405281019062000037919062000383565b816000806101000a81548173ffffffffffffffffffffffffffffffffffffffff021916908373ffffffffffffffffffffffffffffffffffffffff1602179055508060028190555060005b8351811015620001155760016040518060400160405280868481518110620000ae57620000ad620003fe565b5b60200260200101518152602001600081525090806001815401808255809150506001900390600052602060002090600202016000909190919091506000820151816000015560208201518160010155505080806200010c906200045c565b91505062000081565b50505050620004a9565b6000604051905090565b600080fd5b600080fd5b600080fd5b6000601f19601f8301169050919050565b7f4e487b7100000000000000000000000000000000000000000000000000000000600052604160045260246000fd5b620001838262000138565b810181811067ffffffffffffffff82111715620001a557620001a462000149565b5b80604052505050565b6000620001ba6200011f565b9050620001c8828262000178565b919050565b600067ffffffffffffffff821115620001eb57620001ea62000149565b5b602082029050602081019050919050565b600080fd5b6000819050919050565b620002168162000201565b81146200022257600080fd5b50565b60008151905062000236816200020b565b92915050565b6000620002536200024d84620001cd565b620001ae565b90508083825260208201905060208402830185811115620002795762000278620001fc565b5b835b81811015620002a6578062000291888262000225565b8452602084019350506020810190506200027b565b5050509392505050565b600082601f830112620002c857620002c762000133565b5b8151620002da8482602086016200023c565b91505092915050565b600073ffffffffffffffffffffffffffffffffffffffff82169050919050565b60006200031082620002e3565b9050919050565b620003228162000303565b81146200032e57600080fd5b50565b600081519050620003428162000317565b92915050565b6000819050919050565b6200035d8162000348565b81146200036957600080fd5b50565b6000815190506200037d8162000352565b92915050565b6000806000606084860312156200039f576200039e62000129565b5b600084015167ffffffffffffffff811115620003c057620003bf6200012e565b5b620003ce86828701620002b0565b9350506020620003e18682870162000331565b9250506040620003f4868287016200036c565b9150509250925092565b7f4e487b7100000000000000000000000000000000000000000000000000000000600052603260045260246000fd5b7f4e487b7100000000000000000000000000000000000000000000000000000000600052601160045260246000fd5b6000620004698262000348565b91507fffffffffffffffffffffffffffffffffffffffffffffffffffffffffffffffff82036200049e576200049d6200042d565b5b600182019050919050565b61091c80620004b96000396000f3fe608060405234801561001057600080fd5b506004361061007d5760003560e01c8063a72003511161005b578063a7200351146100ef578063b384abef1461011f578063c07473f61461013b578063e2ba53f01461016b5761007d565b8063013cf08b1461008257806355a373d6146100b3578063609ff1bd146100d1575b600080fd5b61009c600480360381019061009791906104c2565b610189565b6040516100aa929190610517565b60405180910390f35b6100bb6101bd565b6040516100c891906105bf565b60405180910390f35b6100d96101e1565b6040516100e691906105da565b60405180910390f35b61010960048036038101906101049190610633565b610269565b60405161011691906105da565b60405180910390f35b61013960048036038101906101349190610660565b610281565b005b61015560048036038101906101509190610633565b610362565b60405161016291906105da565b60405180910390f35b610173610453565b60405161018091906106a0565b60405180910390f35b6001818154811061019957600080fd5b90600052602060002090600202016000915090508060000154908060010154905082565b60008054906101000a900473ffffffffffffffffffffffffffffffffffffffff1681565b6000806000905060005b60018054905081101561026457816001828154811061020d5761020c6106bb565b5b90600052602060002090600202016001015411156102515760018181548110610239576102386106bb565b5b90600052602060002090600202016001015491508092505b808061025c90610719565b9150506101eb565b505090565b60036020528060005260406000206000915090505481565b8061028b33610362565b10156102cc576040517f08c379a00000000000000000000000000000000000000000000000000000000081526004016102c3906107e4565b60405180910390fd5b80600360003373ffffffffffffffffffffffffffffffffffffffff1673ffffffffffffffffffffffffffffffffffffffff168152602001908152602001600020600082825461031b9190610804565b925050819055508060018381548110610337576103366106bb565b5b906000526020600020906002020160010160008282546103579190610804565b925050819055505050565b6000600360008373ffffffffffffffffffffffffffffffffffffffff1673ffffffffffffffffffffffffffffffffffffffff1681526020019081526020016000205460008054906101000a900473ffffffffffffffffffffffffffffffffffffffff1673ffffffffffffffffffffffffffffffffffffffff16633a46b1a8846002546040518363ffffffff1660e01b8152600401610401929190610847565b602060405180830381865afa15801561041e573d6000803e3d6000fd5b505050506040513d601f19601f820116820180604052508101906104429190610885565b61044c91906108b2565b9050919050565b6000600161045f6101e1565b815481106104705761046f6106bb565b5b906000526020600020906002020160000154905090565b600080fd5b6000819050919050565b61049f8161048c565b81146104aa57600080fd5b50565b6000813590506104bc81610496565b92915050565b6000602082840312156104d8576104d7610487565b5b60006104e6848285016104ad565b91505092915050565b6000819050919050565b610502816104ef565b82525050565b6105118161048c565b82525050565b600060408201905061052c60008301856104f9565b6105396020830184610508565b9392505050565b600073ffffffffffffffffffffffffffffffffffffffff82169050919050565b6000819050919050565b600061058561058061057b84610540565b610560565b610540565b9050919050565b60006105978261056a565b9050919050565b60006105a98261058c565b9050919050565b6105b98161059e565b82525050565b60006020820190506105d460008301846105b0565b92915050565b60006020820190506105ef6000830184610508565b92915050565b600061060082610540565b9050919050565b610610816105f5565b811461061b57600080fd5b50565b60008135905061062d81610607565b92915050565b60006020828403121561064957610648610487565b5b60006106578482850161061e565b91505092915050565b6000806040838503121561067757610676610487565b5b6000610685858286016104ad565b9250506020610696858286016104ad565b9150509250929050565b60006020820190506106b560008301846104f9565b92915050565b7f4e487b7100000000000000000000000000000000000000000000000000000000600052603260045260246000fd5b7f4e487b7100000000000000000000000000000000000000000000000000000000600052601160045260246000fd5b60006107248261048c565b91507fffffffffffffffffffffffffffffffffffffffffffffffffffffffffffffffff8203610756576107556106ea565b5b600182019050919050565b600082825260208201905092915050565b7f546f6b656e697a656442616c6c6f743a20747279696e6720746f20766f74652060008201527f6d6f7265207468616e20616c6c6f776564000000000000000000000000000000602082015250565b60006107ce603183610761565b91506107d982610772565b604082019050919050565b600060208201905081810360008301526107fd816107c1565b9050919050565b600061080f8261048c565b915061081a8361048c565b9250828201905080821115610832576108316106ea565b5b92915050565b610841816105f5565b82525050565b600060408201905061085c6000830185610838565b6108696020830184610508565b9392505050565b60008151905061087f81610496565b92915050565b60006020828403121561089b5761089a610487565b5b60006108a984828501610870565b91505092915050565b60006108bd8261048c565b91506108c88361048c565b92508282039050818111156108e0576108df6106ea565b5b9291505056fea2646970667358221220277ce16853c0ef7bd65c847becccb8cb6e6b3d87f88046ec540abb7396942f2f64736f6c63430008120033",
  "linkReferences": {},
  "deployedLinkReferences": {}
}